:02045800410061
:1001E6001203A87BFF7A0479587D017F011203343C
:1001F60012044C1203EDEF70061203FAEF60F412CC
:1002060004527527008F281204557525008F267510
:100216001802AB28AA277D017F02120290751802E8
:10022600AB26AA257D057F02120290E526641545B8
:100236002570021524E5266409452570020524E586
:1002460024FB7A007518037D0A7F0212037580A3CA
:0603CD00C2A58F80D2A73B
:0903D300007F027EC7DEFEDFFCA4
:0103DC0022FE
:0A042900C2A61203CDC2A70203D33E
:10035700CFCDCFCECCCE1201917C007D0A12019178
:04036700ED2430FF52
:0A036B00D2A61203CDC2A70203D3ED
:1003A8007F381204297F0C1204297F061204297F42
:0403B8000102042911
:1003DD00EDBF0103148002243F4480FF1204292243
:0A043300AC031203DDAF0402036BFB
:060334008B148A158916E6
:10033A001203DDE4FDAB14AA15A9168D827583009C
:0C034A00120152FF600612036B0D80E9E7
:010356002284
:0C0301007F0AEA24FFFDE434FFFC7E00CC
:08030D008E198F1A8C1B8D1C48
:100315007F017E00E4FBEBC3951CE51B6480F8744C
:0E0325008098500AAC19AD1A12017F0B80E8C7
:0103330022A7
:040375008A168B1742
:100379001203DDAA18EAD39400400D120301AC164A
:08038900AD171203571A80EDB5
:010391002249
:100256001203DDC3EA64809480400B7F2B12036B8C
:100266008A228B23800E7F2D12036BC3E49BF5231A
:10027600E49AF522AA21EAD39400400D120301ACB8
:0902860022AD231203571A80ED8A
:01028F00224C
:040290008A168B1728
:100294001203DDAA18EAD3940040297F1012030345
:1002A400AC16AD17CFCDCFCECCCE120191EF540FFB
:1002B400FEC3940AEE5004243080022437FF120354
:0402C4006B1A80D160
:0102C8002213
:0402C9008A2B8B2CC5
:1002CD001203DDAA2DEAD394004028EA24FFFDE4B1
:1002DD0034FFFC7F027E0012030DAC2BAD2CCFCD75
:1002ED00CFCECCCE120191EF54012430FF12036B0F
:0302FD001A80D292
:0103000022DA
:10039200EF1FAC0670011E4C600B007D027CC7DCB7
:0503A200FEDDFC80EB14
:0103A7002233
:0B041300D288C289D2A8D2AFD2B82292
:1003BC005389F0438901758A66758CFCC28DC28C99
:0103CC00220E
:0B041E00AD07AC068C8CAF058F8A2266
:09043D00AF8CEFFEAD8AEDFF2249
:06044600EF24FF928C225E
:06044C001203BC020413C0
:0D03ED00E50F6006E4F50F7F01227F00227E
:0D03FA00E50D6006E4F50D7F01227F002275
:03045200AF0C22CA
:03045500AF0B22C8
:03000300020006F2
:10000600C0E0C0F0C083C082C0D075D000C000C0C0
:1000160001C002C003C004C005C006C007E50870E1
:100026000CFFFE12041E7F011204468049E5086497
:1000360001704912043D8E098F0AE4FFFE12041E68
:10004600D3E50A94A6E509942E4010E50A948EE5B8
:100056000994325006750802020137D3E50A948CDA
:10006600E50994264010E50A9474E509942A500699
:10007600750D0102012F750801020137E5086402BA
:10008600600302013712043D8E098F0AE4FFFE1257
:10009600041ED3E50A9414E5099402402CE50A945B
:1000A600FCE50994055022E50E131313541F241082
:1000B600F8C000E6FFE50E5407FE7401A8060880A6
:1000C60002C333D8FCF45F8034D3E50A9426E509ED
:1000D60094064030E50A940EE509940A5026E50E8A
:1000E600131313541F2410F8C000E6FFE50E54073F
:1000F600FE7401A806088002C333D8FC4FD000F670
:10010600050E8006750E00750801E50EC3942040A5
:1001160020750E00E511F4B5100FE513F4B51209BC
:1001260085100C85120B750F01E4FF120446750845
:1001360000D007D006D005D004D003D002D001D01D
:0C01460000D0D0D082D083D0F0D0E032C6
:03000000020407F0
:0C040700787FE4F6D8FD75812D0201E637
:10015200BB010CE58229F582E5833AF583E0225062
:1001620006E92582F8E622BBFE06E92582F8E222AC
:0D017200E58229F582E5833AF583E49322C6
:10017F00EF8DF0A4A8F0CF8CF0A428CE8DF0A42E94
:02018F00FE224E
:10019100BC000BBE0029EF8DF084FFADF022E4CC52
:1001A100F875F008EF2FFFEE33FEEC33FCEE9DEC1B
:1001B100984005FCEE9DFE0FD5F0E9E4CEFD22ED61
:1001C100F8F5F0EE8420D21CFEADF075F008EF2FAB
:1001D100FFED33FD4007985006D5F0F222C398FD9C
:0501E1000FD5F0EA2239
:00000001FF
