:1002220057656C636F6D6520746F204368696E61FA
:020232002100A9
:1001750012020E7BFF7A0279227D107F0112019A0D
:100185007F147E001201F87F181202607FF47E0151
:050195001201F880EBEF
:06023400C2A58F80D2A7D5
:09023A00007F027EC7DEFEDFFC3E
:010243002298
:0A026000C2A6120234C2A702023A3D
:1001BD00CFCDCFCECCCE1200427C007D0A120042B4
:0401CD00ED2430FFEE
:0A01D100D2A6120234C2A702023ABD
:10020E007F381202607F0C1202607F061202607F3E
:04021E000102026077
:10024400EDBF0103148002243F4480FF12026022A8
:0A026A00AC03120244AF040201D1FC
:06019A008B228A23892458
:1001A000120244E4FDAB22AA23A9248D82758300A8
:0C01B000120003FF60061201D10D80E96F
:0101BC002220
:0C0142007F0AEA24FFFDE434FFFC7E008D
:08014E008E1E8F1F8C208D21F5
:100156007F017E00E4FBEBC39521E5206480F87403
:0E0166008098500AAC1EAD1F1200300B80E8CE
:010174002268
:0401DB008A118B12E8
:1001DF00120244AA13EAD39400400D120142AC114B
:0801EF00AD121201BD1A80EDF2
:0101F70022E5
:10009700120244C3EA64809480400B7F2B1201D183
:1000A7008A0D8B0E800E7F2D1201D1C3E49BF50EB6
:1000B700E49AF50DAA0CEAD39400400D120142AC64
:0900C7000DAD0E1201BD1A80ED11
:0100D000220D
:0400D1008A168B17E9
:1000D500120244AA18EAD3940040297F1012014461
:1000E500AC16AD17CFCDCFCECCCE120042EF540F0C
:1000F500FEC3940AEE5004243080022437FF120117
:04010500D11A80D1BA
:0101090022D3
:04010A008A1B8B1CA5
:10010E00120244AA1DEAD394004028EA24FFFDE41B
:10011E0034FFFC7F027E0012014EAC1BAD1CCFCD16
:10012E00CFCECCCE120042EF54012430FF1201D1BB
:03013E001A80D252
:01014100229B
:1001F800EF1FAC0670011E4C600B007D027CC7DC53
:05020800FEDDFC80EBAF
:01020D0022CE
:03000000020254A5
:0C025400787FE4F6D8FD75812402017566
:10000300BB010CE58229F582E5833AF583E02250B2
:1000130006E92582F8E622BBFE06E92582F8E222FC
:0D002300E58229F582E5833AF583E4932216
:10003000EF8DF0A4A8F0CF8CF0A428CE8DF0A42EE4
:02004000FE229E
:10004200BC000BBE0029EF8DF084FFADF022E4CCA2
:10005200F875F008EF2FFFEE33FEEC33FCEE9DEC6B
:10006200984005FCEE9DFE0FD5F0E9E4CEFD22EDB1
:10007200F8F5F0EE8420D21CFEADF075F008EF2FFB
:10008200FFED33FD4007985006D5F0F222C398FDEC
:050092000FD5F0EA2289
:00000001FF
