:10015300E519FD7C007F0112008F1200F28F19E573
:100163001960F77F647E00120179E519FD7C007F39
:060173000112008F80E480
:10019B00EF1FAC0670011E4C600B007D027CC7DCB0
:0501AB00FEDDFC80EB0D
:0101B000222C
:1000F200E4F51C20B1137F14FE12019B30B1FD7F89
:10010200147E0012019B751C0120B0147F147E0026
:1001120012019B30B0FD7F147E0012019B751C0200
:1001220020B2147F147E0012019B30B2FD7F147E38
:100132000012019B751C0320B3147F147E00120170
:100142009B30B3FD7F147E0012019B751C04AF1C13
:01015200228A
:1001B10011083F065B4F666D7D077F6F777C395E67
:0301C10079710051
:10008F00EF14B4080050549000A475F003A4C58376
:10009F0025F0C583730200BC0200C00200C4020039
:1000AF00C80200CC0200D40200DC0200E4D2A4801B
:1000BF000ED2A48012D2A48016D2A4801AC2A4D2C7
:1000CF00A3D2A28016C2A4D2A3C2A2800EC2A4C27F
:1000DF00A3D2A28006C2A4C2A3C2A274082DF8E6BE
:0300EF00F5802277
:0501C500007FE3DFFEF6
:0101CA002212
:04017900AD07AC061C
:10017D00E4FBFAED25E0FFEC33FEC3EB9FEA9E5066
:0D018D000CB2A51201C50BBB00010A80E6F3
:01019A002242
:03000000020003F8
:0C000300787FE4F6D8FD75811C02004AED
:10000F00020153E493A3F8E493A34003F68001F2B3
:10001F0008DFF48029E493A3F85407240CC8C333F2
:10002F00C4540F4420C8834004F456800146F6DFC1
:10003F00E4800B01020408102040809001B1E47E9F
:10004F00019360BCA3FF543F30E509541FFEE493B6
:10005F00A360010ECF54C025E060A840B8E493A37D
:10006F00FAE493A3F8E493A3C8C582C8CAC583CAA8
:10007F00F0A3C8C582C8CAC583CADFE9DEE780BE60
:0101C400003A
:00000001FF
