:1003C200EF1FAC0670011E4C600B007D027CC7DC87
:0503D200FEDDFC80EBE4
:0103D7002203
:05041600E4AF2FF52FFB
:01041B0022BE
:1003D800E4FF20B1010F20B0027F0220B2027F03A8
:0503E80020B3027F04B8
:0103ED0022ED
:10027700852D2E1203D88F2DE52EB40107E52D709D
:1002870003752F01E52EB40207E52D7003752F02C4
:10029700E52EB40307E52D7003752F03E52EB4048F
:0802A70007E52D7003752F041B
:0102AF00222C
:100373000909000A0A0A0A0A0A0A0A0C123F065B5A
:0C0383004F666D7D077F6F004001080190
:09040400AE0574092FF8A60622CA
:10021100E4F580EF14B40800505490022975F003FE
:10022100A4C58325F0C5837302024102024502027F
:100231004902024D0202510202590202610202699F
:10024100D2A4800ED2A48012D2A48016D2A4801A85
:10025100C2A4D2A3D2A28016C2A4D2A3C2A2800EEB
:10026100C2A4C2A3D2A28006C2A4C2A3C2A2741213
:060271002DF8E6F58022E5
:1003900074092508F8E6FD7C00AF08120211050873
:0A03A000E508C39409400375080145
:0103AA002230
:1003AB005389F0438901758A66758CFCC28DD28C9A
:0703BB00D2A9D2AFC2B922A2
:10000E001203AB1204168F28E528B4010CE52770F5
:10001E00047F0180027F008F27E528B40207E4F5F4
:10002E0025F524F526E52864037033E525FD7C00CF
:10003E00E4FF1203317F057E001203C2E524FD7C2E
:10004E00007F011203317F057E001203C2E526FDFB
:10005E007C007F021203317F057E001203C2E52869
:10006E00B40415E4FF1202B08F257F011202B08F87
:10007E00247F021202B08F26E52575F00A84FD7CDE
:10008E00007F01120404E52575F00A84E5F0FD7C7D
:10009E00007F021204047D0B7C007F03120404E532
:1000AE002475F00A84FD7C007F04120404E5247597
:1000BE00F00A84E5F0FD7C007F051204047D0B7CC4
:1000CE00007F06120404E52675F00A84FD7C007F8D
:1000DE0007120404E52675F00A84E5F0FD7C007F26
:0700EE0008120404020011D6
:10030900E527B401220526E526C394644019E4F5DE
:10031900260524E524943C400EE4F5240525E5252D
:08032900943C4003E4F5252299
:03000B000200F5FB
:1000F500C0E0C0F0C083C082C0D075D000C000C0D1
:0D01050001C002C003C004C005C006C00751
:10011200758CFC758A66051FE51F7002051E052198
:10012200E52170020520C3E51F9414E51E940040EA
:1001320009751E00751F00120277C3E5219402E5BE
:1001420020940040097520007521001203900523B8
:10015200E52370020522C3940AE522940040097542
:080162002200752300120309BD
:10016A00D007D006D005D004D003D002D001D000E9
:0B017A00D0D0D082D083D0F0D0E03293
:060331008F298C2A8D2BA0
:1003370012040D7FA01202E01203EEAF291202E0B1
:0E0347001203EEAF2B1202E01203EE020003CF
:0202B0008F2994
:1002B20012040D7FA01202E01203EEAF291202E037
:1002C2001203EE12040D7FA11202E01203EE1203DA
:0D02D200558F2A7F011203FA120003AF2A94
:0102DF0022FC
:09040D00D2A0D2A1C2A0C2A1221A
:07000300C2A0D2A1D2A0228D
:0202E000AD0768
:1002E200E4FB74807E00A803088006CEA2E713CE4A
:1002F20013D8F8FFEDF582EF558224FF92A0D2A128
:06030200C2A10BBB08DCE8
:0103080022D2
:10035500E4FFD2A0FED2A130A00D7480A8060880CB
:0D03650002C313D8FC4207C2A10EBE08E877
:010372002268
:0A03FA00EF24FF92A0D2A1C2A122BD
:0B03EE00E4D2A0D2A1A2A033FFC2A164
:0103F90022E1
:0300000002018575
:0C018500787FE4F6D8FD75812F0201CCD4
:1001910002000EE493A3F8E493A34003F68001F276
:1001A10008DFF48029E493A3F85407240CC8C3336F
:1001B100C4540F4420C8834004F456800146F6DF3E
:1001C100E4800B0102040810204080900373E47E58
:1001D100019360BCA3FF543F30E509541FFEE49333
:1001E100A360010ECF54C025E060A840B8E493A3FA
:1001F100FAE493A3F8E493A3C8C582C8CAC583CA25
:10020100F0A3C8C582C8CAC583CADFE9DEE780BEDC
:01038F00006D
:00000001FF
