:10015E001201BDE4F519E4F51B851B197F0A7E001B
:10016E001201D4051BE51BC3946440ED751B64E5B9
:10017E001BD3940040E0851B197F0A7E001201D428
:04018E00151B80EBD2
:03000B000201925D
:10019200C0E0C0F0C0D0758AA4758CFF051AE51ABC
:1001A20075F0648485F01AE51AC395195004D2A13A
:0B01B2008002C2A1D0D0D0F0D0E0321B
:1001BD005389F0438901758AA4758CFFC28DD28C49
:0701CD00D2A9D2AFC2B92292
:1000FD00E4F51C20B1137F14FE1201D430B1FD7F45
:10010D00147E001201D4751C0120B0147F147E00E2
:10011D001201D430B0FD7F147E001201D4751C0283
:10012D0020B2147F147E001201D430B2FD7F147EF4
:10013D00001201D4751C0320B3147F147E0012012C
:10014D00D430B3FD7F147E001201D4751C04AF1C96
:01015D00227F
:1001D400EF1FAC0670011E4C600B007D027CC7DC77
:0501E400FEDDFC80EBD4
:0101E90022F3
:1001EA0011083F065B4F666D7D077F6F777C395E2E
:0301FA0079710018
:10009A00EF14B4080050549000AF75F003A4C58360
:1000AA0025F0C583730200C70200CB0200CF02000D
:1000BA00D30200D70200DF0200E70200EFD2A480D9
:1000CA000ED2A48012D2A48016D2A4801AC2A4D2BC
:1000DA00A3D2A28016C2A4D2A3C2A2800EC2A4C274
:1000EA00A3D2A28006C2A4C2A3C2A274082DF8E6B3
:0300FA00F580226C
:0300000002000EED
:0C000E00787FE4F6D8FD75811C020055D7
:10001A0002015EE493A3F8E493A34003F68001F29D
:10002A0008DFF48029E493A3F85407240CC8C333E7
:10003A00C4540F4420C8834004F456800146F6DFB6
:10004A00E4800B01020408102040809001EAE47E5B
:10005A00019360BCA3FF543F30E509541FFEE493AB
:10006A00A360010ECF54C025E060A840B8E493A372
:10007A00FAE493A3F8E493A3C8C582C8CAC583CA9D
:10008A00F0A3C8C582C8CAC583CADFE9DEE780BE55
:0101FD000001
:00000001FF
