:100003001200C27D307C007F0112007D7D787C0070
:100013007F0212007D7D7C7C007F0312007D7D3E8C
:100023007C007F0412007D7D3E7C007F0512007DF5
:100033007D7C7C007F0612007D7D787C007F07122B
:0D004300007D7D307C007F0812007D80B6BE
:1000A000EF1FAC0670011E4C600B007D027CC7DCAC
:0500B000FEDDFC80EB09
:0100B5002228
:02005000AD07FA
:10005200E4FB74807E00A803088006CEA2E713CEDC
:1000620013D8F8FFEDF582EF558224FF92B4D2B691
:0A007200C2B60BBB08DCD2B5C2B564
:01007C002261
:0500C200C2B6C2B52228
:10007D00AA07AF05120050EA14FF7480A807088084
:10008D0002C313D8FCF4F5807F017E001200A07529
:03009D0080FF22BF
:030000000200B645
:0C00B600787FE4F6D8FD75810702000396
:00000001FF
