:1009B10020200020202D20202D20200020203A2042
:0509C100203A20200097
:10062D00120514E518FB3395E0FA750C027D017F78
:10063D0001120951E519FB3395E0FA750C027D04A1
:10064D007F01120951E51AFB3395E0FA750C027D15
:10065D00077F01120951E51BFB3395E0FA750C027A
:10066D007D017F02120951E51CFB3395E0FA750CF3
:10067D00027D047F02120951E51DFB3395E0FA75E9
:09068D000C027D077F02020951F5
:10000E00E524B4020B0521E52175F0068485F02167
:10001E00E524640360030200F874182521F806D362
:10002E00E518648094E34003E4F518D3E519648081
:10003E00948C4003751901E51914B40C00400302A9
:10004E0000D490005E75F003A4C58325F0C58373BC
:10005E000200820200B002008202009902008202B7
:10006E0000990200820200820200990200820200C0
:10007E0099020082C3E51A648094815003751A1F99
:10008E00D3E51A6480949F403D8038C3E51A64809E
:10009E0094815003751A1ED3E51A6480949E4026EF
:1000AE008021E51875F00412045EAFF0EF700BD3EB
:1000BE00E51A6480949D400E8009D3E51A648094FD
:1000CE009C4003751A01D3E51B648094974003E4AA
:1000DE00F51BD3E51C648094BB4003E4F51CD3E50B
:1000EE001D648094BB4003E4F51DE52464046003A5
:1000FE000201EA74182521F816C3E518648094806D
:10010E005003751863C3E519648094815003751903
:10011E000CE51914B40C0040030201C690013875A9
:10012E00F003A4C58325F0C5837302015C02018A26
:10013E0002015C02017302015C02017302015C02A6
:10014E00015C02017302015C02017302015CC3E5F2
:10015E001A648094815003751A1FD3E51A64809433
:10016E009F40558050C3E51A648094815003751AE0
:10017E001ED3E51A6480949E403E8039E51875F0D2
:10018E000412045EAFF0EF7017C3E51A6480948119
:10019E005003751A1DD3E51A6480949D401A80157C
:1001AE00C3E51A648094815003751A1CD3E51A6452
:1001BE0080949C4003751A01C3E51B6480948050A3
:1001CE0003751B17C3E51C648094805003751C3B9C
:1001DE00C3E51D648094805003751D3BE5217014AA
:1001EE00E523B4010F7BFF7A0979B17D017F0112FE
:1001FE0009108011E518FB3395E0FA750C027D01AC
:10020E007F01120951E521B40114E523B4010F7BDE
:10021E00FF7A0979B17D047F011209108011E51969
:10022E00FB3395E0FA750C027D047F01120951E54E
:10023E0021B40214E523B4010F7BFF7A0979B17D55
:10024E00077F011209108011E51AFB3395E0FA754C
:10025E000C027D077F01120951E521B40314E52339
:10026E00B4010F7BFF7A0979B17D017F021209106B
:10027E008011E51BFB3395E0FA750C027D017F02C0
:10028E00120951E521B40414E523B4010F7BFF7A62
:10029E000979B17D047F021209108011E51CFB3330
:1002AE0095E0FA750C027D047F02120951E521B426
:1002BE000512E523B4010D7BFF7A0979B17D077F25
:1002CE0002020910E51DFB3395E0FA750C027D075D
:0602DE007F02120951220B
:100753001209C612000312096E7BFF7A0979B47D70
:10076300017F011209107BFF7A0979BD7D017F02A8
:100773001209101202E41206968F24E524B401161E
:10078300E5227007752201F521800BE522B40106ED
:10079300E4F5221202E4E5221460080470D812067C
:0807A3002D80D312000E80CE60
:03000B00020833B5
:09083300C0E0C0D075D000C00780
:10083C00758A18758CFC0520E5207002051FC39481
:10084C00F4E51F94014012751F00752000E523701C
:09085C00047F0180027F008F235C
:07086500D007D0D0D0E03233
:0609DA00C2A58F80D2A728
:0809E0007F027EC7DEFEDFFC92
:0109E80022EC
:0A09E900C2A61209DAC2A70209E053
:10093300CFCDCFCECCCE1204BF7C007D0A1204BF34
:04094300ED2430FF70
:0A094700D2A61209DAC2A70209E0E5
:10098500AE07BE0104ED148006BE0209ED243F4406
:0609950080FF1209E922B7
:1009C6007F381209E97F0C1209E97F061209E97FCF
:0409D600010209E928
:0A09F300AC03120985AF04020947A6
:060910008B088A09890A28
:10091600120985E4FDAB08AA09A90A8D8275830030
:0C092600120480FF60061209470D80E9F2
:0109320022A2
:0C08DD007F0AEA24FFFDE434FFFC7E00EB
:0808E9008E0D8F0E8C0F8D1097
:1008F1007F017E00E4FBEBC39510E50F6480F87483
:0E0901008098500AAC0DAD0E1204AD0B80E8CC
:01090F0022C5
:040951008A0A8B0B78
:10095500120985AA0CEAD39400400D1208DDAC0AF1
:08096500AD0B1209331A80EDFD
:01096D002267
:1007F900120985C3EA64809480400B7F2B12094754
:100809008A168B17800E7F2D120947C3E49BF517B3
:10081900E49AF516AA15EAD39400400D1208DDAC46
:0908290016AD171209331A80ED17
:0108320022A3
:04086C008A278B2824
:10087000120985AA29EAD3940040297F101208DFC3
:10088000AC27AD28CFCDCFCECCCE1204BFEF540FC6
:10089000FEC3940AEE5004243080022437FF12096C
:0408A000471A80D1A2
:0108A4002231
:0408A5008A2C8B2DE1
:1008A900120985AA2EEAD394004028EA24FFFDE420
:1008B90034FFFC7F027E001208E9AC2CAD2DCFCDB0
:1008C900CFCECCCE1204BFEF54012430FF1209471A
:0308D9001A80D2B0
:0108DC0022F9
:0909FD0007181903120C3B370224
:05000300C2B5C2B622E7
:0506F7002DFDEE3CFCAE
:0606FC008C088D09AB071C
:10070200D2B5E4FD74017E00A805088005C333CE8E
:1007120033CED8F9FFEBF582EF558224FF92B4D2A3
:10072200B6C2B60DBD08DDE4FD74017E00A8050861
:100732008005C333CE33CED8F9FFE5085EFEE50966
:100742005F4E24FF92B4D2B6C2B60DBD08DBC2B56D
:010752002284
:0207AB00AD0798
:1007AD00E4F9430501D2B5FB74017E00A80308806E
:1007BD0005C333CE33CED8F9FFEDF582EF55822444
:1007CD00FF92B4C2B6D2B60BBB08DDE4FBD2B6C203
:1007DD00B630B40D7401A803088002C333D8FC42AF
:0B07ED00010BBB08E8C2B5C2B4AF01AD
:0107F80022DE
:1002E400E4FDFC7F8E1206FCE51875F00A12045E2C
:1002F400FF3395E0FEEFC4F8540FC868FFEEC45412
:10030400F048FEE51875F00A12045EADF0ED339581
:10031400E0FCEF7F8C1206F7E51975F00A12045E13
:10032400FF3395E0FEEFC4F8540FC868FFEEC454E1
:10033400F048FEE51975F00A12045EADF0ED339550
:10034400E0FCEF7F881206F7E51A75F00A12045EE6
:10035400FF3395E0FEEFC4F8540FC868FFEEC454B1
:10036400F048FEE51A75F00A12045EADF0ED33951F
:10037400E0FCEF2DFDEE3CFC7F861206FCE51B75D0
:10038400F00A12045EFF3395E0FEEFC4F8540FC880
:1003940068FFEEC454F048FEE51B75F00A12045ED3
:1003A400ADF0ED3395E0FCEF2DFDEE3CFC7F8412C7
:1003B40006FCE51C75F00A12045EFF3395E0FEEFBF
:1003C400C4F8540FC868FFEEC454F048FEE51C7529
:1003D400F00A12045EADF0ED3395E0FCEF2DFDEE76
:1003E4003CFC7F821206FCE51D75F00A12045EFFD8
:1003F4003395E0FEEFC4F8540FC868FFEEC454F020
:1004040048FEE51D75F00A12045EADF0ED3395E08B
:10041400FCEF2DFDEE3CFC7F801206FCE51E75F022
:100424000A12045EFF3395E0FEEFC4F8540FC86867
:10043400FFEEC454F048FEE51E75F00A12045EADEA
:10044400F0ED3395E0FCEF2DFDEE3CFC7F8A1206C7
:0A045400FC7D807C007F8E0206FC18
:100514007F8C1207ABEFC4540F75F00AA4FEEF549E
:100524000F2EF5187F881207ABEFC4540F75F00A2D
:10053400A4FEEF540F2EF5197F861207ABEFC454B7
:100544000F75F00AA4FEEF540F2EF51A7F841207DC
:10055400ABEFC4540F75F00AA4FEEF540F2EF51B35
:100564007F821207ABEFC4540F75F00AA4FEEF5458
:100574000F2EF51C7F801207ABEFC4540F75F00AE1
:10058400A4FEEF540F2EF51D7F8A1207ABEFC4545F
:0C0594000F75F00AA4FEEF540F2EF51EA8
:0105A0002238
:10099B00EF1FAC0670011E4C600B007D027CC7DCA8
:0509AB00FEDDFC80EB05
:0109B0002224
:10096E005389F0438901758A66758CFCC28DD28CD1
:07097E00D2A9D2AFC2B922D9
:10069600E4F50820B1137F14FE12099B30B1FD7FEB
:1006A600147E0012099B75080120B0147F147E0089
:1006B60012099B30B0FD7F147E0012099B7508025B
:1006C60020B2147F147E0012099B30B2FD7F147E87
:1006D6000012099B75080320B3147F147E001209CB
:1006E6009B30B3FD7F147E0012099B750804AF088A
:0106F60022E1
:030000000205A155
:0C05A100787FE4F6D8FD75812E0205E895
:10045E00C2D530F707B2D563F0FF05F030E70CB226
:10046E00D5F4048463F0FF05F080018430D502F4E6
:02047E00042256
:10048000BB010CE58229F582E5833AF583E0225031
:1004900006E92582F8E622BBFE06E92582F8E2227B
:0D04A000E58229F582E5833AF583E4932295
:1004AD00EF8DF0A4A8F0CF8CF0A428CE8DF0A42E63
:0204BD00FE221D
:1004BF00BC000BBE0029EF8DF084FFADF022E4CC21
:1004CF00F875F008EF2FFFEE33FEEC33FCEE9DECEA
:1004DF00984005FCEE9DFE0FD5F0E9E4CEFD22ED30
:1004EF00F8F5F0EE8420D21CFEADF075F008EF2F7A
:1004FF00FFED33FD4007985006D5F0F222C398FD6B
:05050F000FD5F0EA2207
:1005AD00020753E493A3F8E493A34003F68001F20A
:1005BD0008DFF48029E493A3F85407240CC8C3334F
:1005CD00C4540F4420C8834004F456800146F6DF1E
:1005DD00E4800B01020408102040809009FDE47EA8
:1005ED00019360BCA3FF543F30E509541FFEE49313
:1005FD00A360010ECF54C025E060A840B8E493A3DA
:10060D00FAE493A3F8E493A3C8C582C8CAC583CA04
:10061D00F0A3C8C582C8CAC583CADFE9DEE780BEBC
:010A060000EF
:00000001FF
