:1000B20075A0FE1200D212000E8F0AE50A60F7B494
:1000C20001F4050BE50BC3940240EBE4F50B80E66B
:03000B0002006F81
:0B006F00C0E0C0D075D000C000C0078A
:10007A00758CFC758A660509E50970020508C39442
:10008A00F4E50894014018750800750900E50BB4F9
:0F009A00010DAFA07801EF08800103D8FDF5A09C
:0900A900D007D000D0D0D0E03225
:1000D2005389F0438901758A66758CFCC28DD28C76
:0700E200D2A9D2AFC2B9227E
:10000E00E4F50C20B1137F14FE1200E930B1FD7F30
:10001E00147E001200E9750C0120B0147F147E00CE
:10002E001200E930B0FD7F147E001200E9750C025B
:10003E0020B2147F147E001200E930B2FD7F147ED0
:10004E00001200E9750C0320B3147F147E00120019
:10005E00E930B3FD7F147E001200E9750C04AF0C7D
:01006E00226F
:1000E900EF1FAC0670011E4C600B007D027CC7DC63
:0500F900FEDDFC80EBC0
:0100FE0022DF
:030000000200FFFC
:0C00FF00787FE4F6D8FD75810C0200B299
:00000001FF
