:1004E50050617373776F72643A004F4B2000455229
:0204F5005200B3
:08051A00021A000002180000A3
:10018C001204D17BFF7A0479E57D017F01120447CB
:10019C001200038F1CE51C60F7D3940A5041C3E591
:1001AC00199404E51894005028AE1AAF1B7C007DFE
:1001BC000A1202768E1A8F1BE51C75F00A84E5F084
:1001CC00251BF51BE4351AF51A0519E519700205FE
:1001DC0018750C04AB1BAA1A7D017F02120488E56A
:1001EC001C640B7036E51BB4290DE51AB409087BA9
:1001FC00FF7A0479EF80067BFF7A0479F37D0C7F1C
:10020C0001120447E4F51AF51BF518F519750C04E1
:10021C00AB1BAA1A7D017F02120488E51C640C60DA
:10022C000302019CF51AF51BF518F519750C04ABB6
:0D023C001BAA1A7D017F0212048802019C9A
:1004A500EF1FAC0670011E4C600B007D027CC7DCA3
:0504B500FEDDFC80EB00
:0104BA00221F
:0604F700C2A58F80D2A710
:0804FD007F027EC7DEFEDFFC7A
:0105050022D3
:0A050600C2A61204F7C2A70204FD0A
:10046A00CFCDCFCECCCE1202887C007D0A12028874
:04047A00ED2430FF3E
:0A047E00D2A61204F7C2A70204FD83
:1004BB00AE07BE0104ED148006BE0209ED243F44D5
:0604CB0080FF120506226D
:1004D1007F381205067F0C1205067F061205067F7E
:0404E1000102050609
:0A051000AC031204BBAF0402047E2A
:060447008B088A09890AF6
:10044D001204BBE4FDAB08AA09A90A8D82758300CD
:0C045D00120249FF600612047E0D80E9C7
:010469002270
:0C0414007F0AEA24FFFDE434FFFC7E00B8
:080420008E0D8F0E8C0F8D1064
:100428007F017E00E4FBEBC39510E50F6480F87450
:0E0438008098500AAC0DAD0E1202760B80E8D3
:010446002293
:040488008A0A8B0B46
:10048C001204BBAA0CEAD39400400D120414AC0A5B
:08049C00AD0B12046A1A80ED99
:0104A4002235
:100369001204BBC3EA64809480400B7F2B12047E85
:100379008A168B17800E7F2D12047EC3E49BF51716
:10038900E49AF516AA15EAD39400400D120414ACA8
:0903990016AD1712046A1A80ED7A
:0103A2002238
:0403A3008A1F8B2002
:1003A7001204BBAA21EAD3940040297F1012041635
:1003B700AC1FAD20CFCDCFCECCCE120288EF540FDD
:1003C700FEC3940AEE5004243080022437FF12043F
:0403D7007E1A80D139
:0103DB0022FF
:0403DC008A248B25BF
:1003E0001204BBAA26EAD394004028EA24FFFDE4C5
:1003F00034FFFC7F027E00120420AC24AD25CFCD5B
:10040000CFCECCCE120288EF54012430FF12047EEE
:030410001A80D27D
:0104130022C6
:10000300E4F5087590FFC2932097137F14FE120442
:10001300A53097FD7F147E001204A5750801209674
:10002300147F147E001204A53096FD7F147E001207
:1000330004A57508052095147F147E001204A530CD
:1000430095FD7F147E001204A57508092094147F82
:10005300147E001204A53094FD7F147E001204A5C3
:1000630075080D7590FFC2922097147F147E0012BD
:1000730004A53097FD7F147E001204A575080220A5
:1000830096147F147E001204A53096FD7F147E0023
:100093001204A57508062095147F147E001204A58A
:1000A3003095FD7F147E001204A575080A20941470
:1000B3007F147E001204A53094FD7F147E00120489
:1000C300A575080E7590FFC2912097147F147E00CA
:1000D3001204A53097FD7F147E001204A575080352
:1000E3002096147F147E001204A53096FD7F147EA3
:1000F300001204A57508072095147F147E001204CE
:10010300A53095FD7F147E001204A575080B20947D
:10011300147F147E001204A53094FD7F147E001218
:1001230004A575080F7590FFC2902097147F147E65
:10013300001204A53097FD7F147E001204A57508F4
:10014300042096147F147E001204A53096FD7F14BC
:100153007E001204A57508082095147F147E0012F2
:1001630004A53095FD7F147E001204A575080C20AC
:1001730094147F147E001204A53094FD7F147E0036
:080183001204A5750810AF0875
:01018B002251
:030000000202DD1C
:0C02DD00787FE4F6D8FD7581260203242A
:10024900BB010CE58229F582E5833AF583E022506A
:1002590006E92582F8E622BBFE06E92582F8E222B4
:0D026900E58229F582E5833AF583E49322CE
:10027600EF8DF0A4A8F0CF8CF0A428CE8DF0A42E9C
:02028600FE2256
:10028800BC000BBE0029EF8DF084FFADF022E4CC5A
:10029800F875F008EF2FFFEE33FEEC33FCEE9DEC23
:1002A800984005FCEE9DFE0FD5F0E9E4CEFD22ED69
:1002B800F8F5F0EE8420D21CFEADF075F008EF2FB3
:1002C800FFED33FD4007985006D5F0F222C398FDA4
:0502D8000FD5F0EA2241
:1002E90002018CE493A3F8E493A34003F68001F29E
:1002F90008DFF48029E493A3F85407240CC8C33316
:10030900C4540F4420C8834004F456800146F6DFE4
:10031900E4800B010204081020408090051AE47E55
:10032900019360BCA3FF543F30E509541FFEE493D9
:10033900A360010ECF54C025E060A840B8E493A3A0
:10034900FAE493A3F8E493A3C8C582C8CAC583CACB
:10035900F0A3C8C582C8CAC583CADFE9DEE780BE83
:0105220000D8
:00000001FF
