:10014100180A3C42A98585A9423C3C42A58585A562
:0D015100423C3C42A58989A5423C012200A8
:1000FB0012015F120003E4F523E5232522240AF8FD
:10010B00E6FD7C00AF2312011F0523E523C39408F2
:04011B0040E780E257
:03000B0002009A56
:04009A00C0E0C0D032
:10009E00758CFC758A660509E50970020508C3941E
:1000AE002CE50894014014750800750900740825A4
:0B00BE0022F522D394104003752200AD
:0500C900D0D0D0E032B0
:10017600EF1FAC0670011E4C600B007D027CC7DCD5
:05018600FEDDFC80EB32
:01018B002251
:0200CE00AD077C
:1000D000E4FB74807E00A803088006CEA2E713CE5E
:1000E00013D8F8FFEDF582EF558224FF92B4D2B613
:0A00F000C2B60BBB08DCD2B5C2B5E6
:0100FA0022E3
:05000300C2B6C2B522E7
:10011F00AA07AF051200CEAF027480A807088002AD
:10012F00C313D8FCF4F5807F017E00120176758031
:02013F00FF229D
:10015F005389F0438901758A66758CFCC28DD28CE8
:07016F00D2A9D2AFC2B922F0
:0300000002000EED
:0C000E00787FE4F6D8FD758123020055D0
:10001A000200FBE493A3F8E493A34003F68001F201
:10002A0008DFF48029E493A3F85407240CC8C333E7
:10003A00C4540F4420C8834004F456800146F6DFB6
:10004A00E4800B0102040810204080900141E47E04
:10005A00019360BCA3FF543F30E509541FFEE493AB
:10006A00A360010ECF54C025E060A840B8E493A372
:10007A00FAE493A3F8E493A3C8C582C8CAC583CA9D
:10008A00F0A3C8C582C8CAC583CADFE9DEE780BE55
:01015E0000A0
:00000001FF
