:10014200120235752500752602750C03AB26AA2509
:100152007D037F021201EC0526E526700205257F4C
:10016200E87E0312021F750C03AB26AA257D037FCE
:06017200021201EC80E125
:06024900C2A58F80D2A7C0
:08024F007F027EC7DEFEDFFC2A
:010257002284
:0A026400C2A6120249C2A702024F0F
:1001CE00CFCDCFCECCCE1200427C007D0A120042A3
:0401DE00ED2430FFDD
:0A01E200D2A6120249C2A702024F82
:10020900AE07BE0104ED148006BE0209ED243F4489
:0602190080FF12026422C6
:100235007F381202647F0C1202647F061202647F0B
:04024500010202644C
:0A026E00AC03120209AF040201E222
:0601AB008B228A23892447
:1001B100120209E4FDAB22AA23A9248D82758300D2
:0C01C100120003FF60061201E20D80E94D
:0101CD00220F
:0C0178007F0AEA24FFFDE434FFFC7E0057
:080184008E0D8F0E8C0F8D1003
:10018C007F017E00E4FBEBC39510E50F6480F874EF
:0E019C008098500AAC0DAD0E1200300B80E8BA
:0101AA002232
:0401EC008A0A8B0BE5
:1001F000120209AA0CEAD39400400D120178AC0A4D
:08020000AD0B1201CE1A80EDD6
:0102080022D3
:10009700120209C3EA64809480400B7F2B1201E2AD
:1000A7008A168B17800E7F2D1201E2C3E49BF5178A
:1000B700E49AF516AA15EAD39400400D120178AC1C
:0900C70016AD171201CE1A80EDEE
:0100D000220D
:0400D1008A1A8B1BE1
:1000D500120209AA1CEAD3940040297F1012017A62
:1000E500AC1AAD1BCFCDCFCECCCE120042EF540F04
:1000F500FEC3940AEE5004243080022437FF120117
:04010500E21A80D1A9
:0101090022D3
:04010A008A1F8B209D
:10010E00120209AA21EAD394004028EA24FFFDE452
:10011E0034FFFC7F027E00120184AC1FAD20CFCDD8
:10012E00CFCECCCE120042EF54012430FF1201E2AA
:03013E001A80D252
:01014100229B
:10021F00EF1FAC0670011E4C600B007D027CC7DC2B
:05022F00FEDDFC80EB88
:0102340022A7
:03000000020258A1
:0C025800787FE4F6D8FD75812602014293
:10000300BB010CE58229F582E5833AF583E02250B2
:1000130006E92582F8E622BBFE06E92582F8E222FC
:0D002300E58229F582E5833AF583E4932216
:10003000EF8DF0A4A8F0CF8CF0A428CE8DF0A42EE4
:02004000FE229E
:10004200BC000BBE0029EF8DF084FFADF022E4CCA2
:10005200F875F008EF2FFFEE33FEEC33FCEE9DEC6B
:10006200984005FCEE9DFE0FD5F0E9E4CEFD22EDB1
:10007200F8F5F0EE8420D21CFEADF075F008EF2FFB
:10008200FFED33FD4007985006D5F0F222C398FDEC
:050092000FD5F0EA2289
:00000001FF
