:10015E001201C9E4F5191200FD8F1AE51A64017037
:10016E0023051C531C03E51C7002F519E51CB40194
:10017E0003751932E51CB4020375194BE51CB40363
:10018E0003751964E51CFD7C007F0112009A80C680
:03000B0002019E51
:10019E00C0E0C0F0C0D0758AA4758CFF051BE51BAE
:1001AE0075F0648485F01BE51BC395195004D2903D
:0B01BE008002C290D0D0D0F0D0E03220
:1001C9005389F0438901758AA4758CFFC28DD28C3D
:0701D900D2A9D2AFC2B92286
:1000FD00E4F51D20B1137F14FE1201E030B1FD7F38
:10010D00147E001201E0751D0120B0147F147E00D5
:10011D001201E030B0FD7F147E001201E0751D026A
:10012D0020B2147F147E001201E030B2FD7F147EE8
:10013D00001201E0751D0320B3147F147E0012011F
:10014D00E030B3FD7F147E001201E0751D04AF1D7C
:01015D00227F
:1001E000EF1FAC0670011E4C600B007D027CC7DC6B
:0501F000FEDDFC80EBC8
:0101F50022E7
:1001F60011083F065B4F666D7D077F6F777C395E22
:030206007971000B
:10009A00EF14B4080050549000AF75F003A4C58360
:1000AA0025F0C583730200C70200CB0200CF02000D
:1000BA00D30200D70200DF0200E70200EFD2A480D9
:1000CA000ED2A48012D2A48016D2A4801AC2A4D2BC
:1000DA00A3D2A28016C2A4D2A3C2A2800EC2A4C274
:1000EA00A3D2A28006C2A4C2A3C2A274082DF8E6B3
:0300FA00F580226C
:0300000002000EED
:0C000E00787FE4F6D8FD75811D020055D6
:10001A0002015EE493A3F8E493A34003F68001F29D
:10002A0008DFF48029E493A3F85407240CC8C333E7
:10003A00C4540F4420C8834004F456800146F6DFB6
:10004A00E4800B01020408102040809001F6E47E4F
:10005A00019360BCA3FF543F30E509541FFEE493AB
:10006A00A360010ECF54C025E060A840B8E493A372
:10007A00FAE493A3F8E493A3C8C582C8CAC583CA9D
:10008A00F0A3C8C582C8CAC583CADFE9DEE780BE55
:0102090000F4
:00000001FF
